:1000000013C0AFC7DBC735C034C033C032C031C046
:1000100030C001C82EC02DC02CC02BC02AC029C0A2
:1000200028C027C026C02A0311241FBECFE5D4E074
:10003000DEBFCDBF10E0A0E6B0E0E6E6F4E102C02E
:1000400005900D92A236B107D9F721E0A2E6B0E003
:1000500001C01D92A831B207E1F710E0C8E2D0E07C
:1000600003C02297FE01E4D9C632D107D1F790D858
:10007000F8C9C6CFE1C9E8C9DF92EF92FF920F93AA
:100080001F93CF93DF938C0180E090E0F3DFE82EA5
:1000900080936B00F12C80E1F89EE0011124CE01E9
:1000A0000296E8DFD82ECE010196E4DF2D2D30E058
:1000B000322F2227280F311D0217130721F4F09247
:1000C0006B0081E004C0F394EF1428F780E0DF9127
:1000D000CF911F910F91FF90EF90DF9008958111C4
:1000E0000EC080B3887321F480B3887329F008951B
:1000F00082B3877C82BB089582B38863FBCF813053
:1001000019F482B398E009C0823019F482B390E107
:1001100004C0833021F482B390E28927EBCF0895A5
:100120008F929F92BF92CF92DF92EF92FF920F93A6
:100130001F93CF93DF931F92CDB7DEB78C018091D1
:100140006C00811109C0B1D760936D0070936E008F
:1001500080936F009093700080916C008F5F80930C
:100160006C00853108F4B3C0A0D7C0906D00D0906A
:100170006E00E0906F00F09070006C197D098E09A0
:100180009F0960327E448105910508F0A0C036E0E9
:10019000F32E82B3886382BB6CE271E080E090E072
:1001A000B4D782B3877C82BB6CE271E080E090E0E0
:1001B000ACD7FA9471F768EE73E080E090E0A5D7D1
:1001C000812C912CC12CD12C7601C394B82C882D74
:1001D00086DFC0926D00D0926E00E0926F00F092C8
:1001E000700082E690E085D240916D0050916E00E3
:1001F00060916F0070917000452B462B472BE9F101
:1002000082E690E067D2882379F382E690E07AD2A2
:1002100080E090E069832EDFF40120E1829FE00D11
:10022000F11D1124CF016981039625DF8B2D57DF46
:1002300064EF71E080E090E068D78B2D50DF68ECD0
:1002400070E080E090E061D78B2D49DF68EC70E0D2
:1002500080E090E05AD78B2D42DF68EC70E080E0C0
:1002600090E053D78B2D3BDF10926D0010926E0003
:1002700010926F0010927000B7CF64EF71E080E0D1
:1002800090E043D73FEF831A930A44E08416910429
:1002900009F09CCF80E090E0EDDEE0E18E9FC001B0
:1002A0001124602F0196E7DE80E090E0E3DEF0E1CC
:1002B0008F9FC0011124612F0296DDDE80E090E067
:1002C000D9DE61E0680F80E090E0D5DE16C0809155
:1002D0006C008431E8F4E9D6C0906D00D0906E00D7
:1002E000E0906F00F09070006C197D098E099F09F5
:1002F00061327E448105910558F0D7D660936D0038
:1003000070936E0080936F009093700010926C0059
:1003100082E690E00F90DF91CF911F910F91FF90B7
:10032000EF90DF90CF90BF909F908F90E2C18F921F
:100330009F92AF92BF92CF92DF92EF92FF9282E6AE
:1003400090E0E0D16B017C01872E982EA92EBB2472
:10035000C40192DE882329F082E690E0CAD18C2D78
:1003600003C0C401DDDE80E0FF90EF90DF90CF900E
:10037000BF90AF909F908F900895CF92DF92EF92B1
:10038000FF920F931F93CF93DF93C2E382E690E037
:10039000B0D182E690E09ED18823C1F3C8DF8F3FC1
:1003A00049F480E09CDEC15064E670E080E090E0BB
:1003B000ACD657C0833009F054C082E690E099D1A2
:1003C000C3E0EE24E394F12CC73098F482B387782D
:1003D00082BB22B3C7010C2E01C0880F0A94EAF732
:1003E000282B22BB6CE271E080E090E08ED6CF5FDC
:1003F000EBCF82E690E06ED1811102C0C3E0E6CF80
:1004000096DFC82E00916B0080E1089F80011124C7
:10041000C1E0D0E00D5F1F4FDC2EC8018C0F9D1F87
:1004200029DEC81219C0C650DF4FCE0123DE882353
:1004300011F060E001C06FEFCE011DDE92B3977C3A
:1004400092BBCAE08D2D4BDE64E670E080E090E068
:100450005CD6C150B9F723C02196C530D105E1F66D
:10046000CDCFC11193CF60ED77E080E090E04DD625
:1004700060E080E090E0FFDDC1E0D0E06FEFCE0112
:10048000FADD2196CA3FD105C9F7CAE080E027DE30
:1004900064E670E080E090E038D6C150B9F782B3EE
:1004A000877C82BBDF91CF911F910F91FF90EF90DE
:1004B000DF90CF90089560E070E082E690E006D192
:1004C00080E090E0D7DD8F3FC1F460E080E090E015
:1004D000D2DD60E08AEF90E0CEDD60E08BEF90E06F
:1004E000CADD60E08CEF90E0C6DD60E08DEF90E06B
:1004F000C2DD60E08EEF90E0BEDD81B3886381BB3A
:1005000082B3876C82BB88B38FEF88BB95B385BB02
:1005100080E090E0AFDD811108C082B3886382BBC8
:1005200068EE73E080E090E0F0D582B3877C82BB18
:100530008BEF90E09FDD92B38870892B82BB8CEFAC
:1005400090E098DD92B38071892B82BB8DEF90E0B3
:1005500091DD92B38072892B82BB08950F931F9314
:10056000CF93DF9382E690E0B5D0882309F451C0A1
:10057000DEDEC82F833C11F510B3187711F181E04E
:1005800080936C0082B3812782BB68EC70E080E0CE
:1005900090E0BBD582B3812B82BB6CE271E080E03E
:1005A00090E0B3D582B3812782BB68EC70E080E035
:1005B00090E0ABD582B3812B82BB03C08F3F09F49F
:1005C000DCDE03E010E0DDEFD00F80916B009801DE
:1005D00040E1849F200D311D1124C9014BDDC8135A
:1005E0000BC08D2F7CDD61D560936D0070936E0024
:1005F00080936F00909370000F5F1F4F08301105BC
:1006000011F76CE271E080E090E07FD582E690E047
:1006100070D080B38873C9F048D500916D001091F7
:100620006E0020916F0030917000601B710B820B87
:10063000930B613477478B41910538F080916C00C2
:10064000811103C082B3877C82BBDF91CF911F9160
:100650000F91089582E690E000C0FC018FEF9FEFBC
:10066000938382832EE531E0358324832AE030E0D2
:100670003783268321E02087918380838CE390E079
:10068000909361008093600010920701109208011E
:100690001092090110920A010895FC018081918154
:1006A0008F3FFFEF9F0789F010920701109208011A
:1006B0001092090110920A01109206011092050190
:1006C00041E050E063E177E02DC40895FC017183BF
:1006D0006083E3CF81E04091070150910801609170
:1006E000090170910A01452B462B472B09F480E044
:1006F00008951092070110920801109209011092BA
:100700000A01089560910701709108018091090123
:1007100090910A0108952F923F924F925F926F92AB
:100720007F928F929F92AF92BF92CF92DF92EF9281
:10073000FF920F931F93CF93DF93CDB7DEB76097F0
:100740000FB6F894DEBF0FBECDBF1C0180917B00B9
:1007500090917C006FE170E043D68B014B01A12C9E
:10076000B12CA0916000B09161009B0159D647D592
:100770002AE037ED43E25CE3A8D515D56B017C0197
:100780009801A3E0B0E040D69B01AC012C193D09D3
:100790004E095F092D833E834F8358872601370119
:1007A000460E571E681E791E21E030E080E090E082
:1007B000DC01B501A4014C195D096E097F09498767
:1007C0005A876B877C87B701A601480D591D6A1DA2
:1007D0007B1D4D875E876F87788B2215330508F068
:1007E00073C0F901EE0FFF1FE558FF4F0190F08134
:1007F000E02D4F01A12CB12CC984DA84EB84FC8458
:10080000C814D904EA04FB0428F54D855E856F857C
:10081000788984169506A606B706E0F4F901EE0F6E
:10082000FF1FE358FF4FE080F180A70160E070E018
:1008300049835A836B837C83CD80DE80EF80F8848C
:10084000C416D506E606F70628F4441555056605D0
:10085000770570F14D815E816F8178854815590566
:100860006A057B0550F584149504A604B70428F5A1
:10087000F901EE0FFF1FE358FF4F0190F081E02DCB
:100880004F01A12CB12CC984DA84EB84FC84C814F8
:10089000D904EA04FB0488F44D855E856F85788968
:1008A00084169506A606B70640F40196A11DB11D53
:1008B000880F991FAA1FBB1F04C0910180E090E020
:1008C000DC012E5F3F4F89CFB695A7959795879509
:1008D00057E025163104C0F080930701909308017A
:1008E000A0930901B0930A0136942794309206012F
:1008F00020920501109304010093030121E030E0F0
:10090000309302012093010121E0892B8A2B8B2B4C
:1009100009F420E0822F60960FB6F894DEBF0FBE78
:10092000CDBFDF91CF911F910F91FF90EF90DF909E
:10093000CF90BF90AF909F908F907F906F905F907F
:100940004F903F902F9008952F923F924F925F9239
:100950006F927F928F929F92AF92BF92CF92DF92CF
:10096000EF92FF920F931F93CF93DF93CDB7DEB734
:1009700060970FB6F894DEBF0FBECDBF1C0180910B
:100980007B0090917C006AE070E02AD58B016B01BE
:10099000E12CF12CA0916000B09161009B0140D549
:1009A0002ED42AE037ED43E25CE38FD4FCD346013A
:1009B0005701880C991CAA1CBB1CA5019401261B7D
:1009C000370B480B590B2D873E874F87588B9B0160
:1009D000AC01280D391D4A1D5B1D2D833E834F83BD
:1009E000588721E030E019821A821B821C8246015E
:1009F0005701861A970AA80AB90A4D815E816F814C
:100A000078854C195D096E097F096A017B01221501
:100A1000330508F07CC0F901EE0FFF1FE558FF4FCA
:100A20000190F081E02D2F01612C712C841495042C
:100A3000A604B70460F54C145D046E047F0438F519
:100A4000F901EE0FFF1FE358FF4F40815181BA01BA
:100A500080E090E069877A878B879C87DC01CB01F7
:100A60004D855E856F857889481759076A077B072A
:100A700070F44D815E816F81788584179507A60794
:100A8000B70728F469817A818B819C812FC08D857D
:100A90009E85AF85B88984159505A605B70578F5B7
:100AA0004D815E816F81788544165506660677060E
:100AB00030F5F901EE0FFF1FE358FF4F0190F08171
:100AC000E02D2F01612C712C84149504A604B70429
:100AD000B0F44C145D046E047F0488F469817A815B
:100AE0008B819C816F5F7F4F8F4F9F4F660F771F6A
:100AF000881F991F69837A838B839C8305C091012A
:100B000019821A821B821C822E5F3F4F80CF8981FF
:100B10009A81AB81BC81B695A7959795879577E02B
:100B200027163104C0F08093070190930801A09329
:100B30000901B0930A01369427943092060120925D
:100B40000501109304010093030122E030E030938B
:100B500002012093010121E0892B8A2B8B2B09F4C0
:100B600020E0822F60960FB6F894DEBF0FBECDBF97
:100B7000DF91CF911F910F91FF90EF90DF90CF9079
:100B8000BF90AF909F908F907F906F905F904F90AD
:100B90003F902F9008952F923F924F925F926F92C5
:100BA0007F928F929F92AF92BF92CF92DF92EF92FD
:100BB000FF920F931F93CF93DF93CDB7DEB76C9760
:100BC0000FB6F894DEBF0FBECDBF8C0180917B00C5
:100BD00090917C0067E470E003D41B01A091600059
:100BE000B09161009B011CD40AD32AE037ED43E2A7
:100BF0005CE36BD3D8D26B017C01C101A0E0B0E013
:100C000052E0880F991FAA1FBB1F5A95D1F74C01BC
:100C10005D018C189D08AE08BF0889829A82AB825C
:100C2000BC82B701A601480F591F6A1F7B1F4D8365
:100C30005E836F8378879101ABE0B0E0E5D34B0131
:100C40005C018C189D08AE08BF0889869A86AB8621
:100C5000BC8646015701860E971EA81EB91E8D86BA
:100C60009E86AF86B88AA9E0B0E0CED34B015C0186
:100C70008C189D08AE08BF08898A9A8AAB8ABC8AFC
:100C800046015701860E971EA81EB91E8D8A9E8AA0
:100C9000AF8AB88EA6E0B0E0B7D39B01AC012C19A7
:100CA0003D094E095F09298F3A8F4B8F5C8FC60E25
:100CB000D71EE81EF91E21E030E080E090E0DC0164
:100CC0002017310708F070C0F901EE0FFF1FE5583B
:100CD000FF4F408151812A01612C712C49815A8139
:100CE0006B817C81441555056605770520F58D805F
:100CF0009E80AF80B884481459046A047B04D8F4F9
:100D0000F901EE0FFF1FE358FF4F4081518160E072
:100D100070E089849A84AB84BC8484169506A60608
:100D2000B70648F48D849E84AF84B8884815590569
:100D30006A057B0568F149895A896B897C89441564
:100D400055056605770548F58D889E88AF88B88C6F
:100D5000481459046A047B0400F5F901EE0FFF1FE3
:100D6000E358FF4F408151812A01612C712C498D3C
:100D70005A8D6B8D7C8D441555056605770568F495
:100D80004C145D046E047F0440F40196A11DB11D56
:100D9000880F991FAA1FBB1F04C0980180E090E034
:100DA000DC012E5F3F4F8CCFB695A7959795879521
:100DB00007301105C0F08093070190930801A093BC
:100DC0000901B0930A011695079510930601009347
:100DD0000501309204012092030123E030E03093BA
:100DE00002012093010121E0892B8A2B8B2B09F42E
:100DF00020E0822F6C960FB6F894DEBF0FBECDBFF9
:100E0000DF91CF911F910F91FF90EF90DF90CF90E6
:100E1000BF90AF909F908F907F906F905F904F901A
:100E20003F902F900895CF92DF92EF92FF920F9311
:100E30001F93CF93DF9345D16B017C0180917700A5
:100E4000909178008601081B190B1093760000938F
:100E50007500093883E11807A8F180917B00909113
:100E60007C009C01285C31092017310738F5885334
:100E70009F4F0817190710F5809173009091740027
:100E800001969093740080937300C0917100D0918B
:100E900072002197D0937200C0937100029771F491
:100EA000CE0139DC811106C0CE014EDD811102C0B8
:100EB000CE0171DE109274001092730010927200D5
:100EC00010927100809171009091720083349105AD
:100ED00040F0109272001092710010927400109203
:100EE0007300E0917100F0917200CF010196909330
:100EF000720080937100EE0FFF1FE558FF4F1183C2
:100F00000083C0927700D0927800E0927900F0924E
:100F10007A00DF91CF911F910F91FF90EF90DF90BA
:100F2000CF9008958230E0F4E82FF0E0EE0FFF1F3D
:100F3000E55FFE4F71836083813039F085B78C7F28
:100F4000842B85BF8BB780640AC085B7440F551FBB
:100F5000440F551F837F842B85BF8BB780688BBF61
:100F600008951F920F920FB60F9211242F933F9363
:100F70004F935F936F937F938F939F93AF93BF93A1
:100F8000EF93FF9380910B0190910C01892B29F035
:100F9000E0910B01F0910C010995FF91EF91BF9148
:100FA000AF919F918F917F916F915F914F913F9101
:100FB0002F910F900FBE0F901F9018951F920F92B8
:100FC0000FB60F9211242F933F934F935F936F931C
:100FD0007F938F939F93AF93BF93EF93FF938091F2
:100FE0000D0190910E01892B29F0E0910D01F091F6
:100FF0000E010995FF91EF91BF91AF919F918F9154
:101000007F916F915F914F913F912F910F900FBE04
:101010000F901F9018951F920F920FB60F921124E8
:101020002F933F938F939F93AF93BF938091100122
:1010300090911101A0911201B091130130910F0113
:1010400020E3230F2D3720F44096A11DB11D05C0CC
:1010500023EB230F4196A11DB11D20930F01809317
:10106000100190931101A0931201B093130180918C
:10107000140190911501A0911601B09117010196EC
:10108000A11DB11D8093140190931501A093160129
:10109000B0931701BF91AF919F918F913F912F9185
:1010A0000F900FBE0F901F9018952FB7F894609176
:1010B00010017091110180911201909113012FBFC5
:1010C00008953FB7F8948091140190911501A09173
:1010D0001601B091170122B708B600FE05C02F3FD8
:1010E00019F00196A11DB11D3FBF6627782F892FEA
:1010F0009A2F620F711D811D911D46E0660F771FAB
:10110000881F991F4A95D1F70895CF92DF92EF92E9
:10111000FF92CF93DF936B017C01D3DFEB01C1140E
:10112000D104E104F10479F03DD0CBDF6C1B7D0BE1
:10113000683E7340A0F381E0C81AD108E108F108C5
:10114000C851DC4FECCFDF91CF91FF90EF90DF9053
:10115000CF900895789483B7826083BF83B781600E
:1011600083BF89B7816089BF1EBC8EB582608EBD8A
:101170008FB581608FBD85B5846085BD85B5806480
:1011800085BD329A319A309A379A1AB808950895DF
:10119000E1DFFDDF90D9C0E0D0E0E0D92097E9F3AE
:1011A0002FD7FBCF089570D088F09F5790F0B92FBC
:1011B0009927B751A0F0D1F0660F771F881F991FAC
:1011C0001AF0BA95C9F712C0B13081F077D0B1E00A
:1011D000089574C0672F782F8827B85F39F0B93F1A
:1011E000CCF3869577956795B395D9F73EF49095AE
:1011F0008095709561957F4F8F4F9F4F0895E8942C
:1012000009C097FB3EF490958095709561957F4F4E
:101210008F4F9F4F9923A9F0F92F96E9BB279395FC
:10122000F695879577956795B795F111F8CFFAF40C
:10123000BB0F11F460FF1BC06F5F7F4F8F4F9F4F3D
:1012400016C0882311F096E911C0772321F09EE89B
:10125000872F762F05C0662371F096E8862F70E001
:1012600060E02AF09A95660F771F881FDAF7880FDB
:101270009695879597F9089557FD9058440F551FF7
:1012800059F05F3F71F04795880F97FB991F61F008
:101290009F3F79F087950895121613061406551F7F
:1012A000F2CF4695F1DF08C0161617061806991FEB
:1012B000F1CF86957105610508940895E894BB27E0
:1012C00066277727CB0197F908950BD078C069D0AE
:1012D00028F06ED018F0952309F05AC05FC0112491
:1012E000EECFCADFA0F3959FD1F3950F50E0551FC5
:1012F000629FF001729FBB27F00DB11D639FAA276B
:10130000F00DB11DAA1F649F6627B00DA11D661FB9
:10131000829F2227B00DA11D621F739FB00DA11DDA
:10132000621F839FA00D611D221F749F3327A00D94
:10133000611D231F849F600D211D822F762F6A2F30
:1013400011249F5750408AF0E1F088234AF0EE0FB5
:10135000FF1FBB1F661F771F881F91505040A9F7C2
:101360009E3F510570F014C0AACF5F3FECF3983E4A
:10137000DCF3869577956795B795F795E7959F5F29
:10138000C1F7FE2B880F911D9695879597F90895C3
:1013900097F99F6780E870E060E008959FEF80EC28
:1013A000089500240A9416161706180609060895CB
:1013B00000240A9412161306140605060895092E31
:1013C0000394000C11F4882352F0BB0F40F4BF2BA0
:1013D00011F460FF04C06F5F7F4F8F4F9F4F0895E0
:1013E000AA1BBB1B51E107C0AA1FBB1FA617B7074B
:1013F00010F0A61BB70B881F991F5A95A9F7809567
:101400009095BC01CD010895A29FB001B39FC0018A
:10141000A39F01D0B29F700D811D1124911D0895CD
:10142000F3DFB7FF0895821B930B0895EE0FFF1FA4
:101430000590F491E02D0994E199FECF9FBB8EBBFE
:10144000E09A99278DB30895262FE199FECF9FBB8F
:101450008EBB2DBB0FB6F894E29AE19A0FBE0196AF
:061460000895F894FFCF8F
:021466003C0048
:00000001FF
